{
  "contractName": "RDF",
  "abi": [
    {
      "inputs": [],
      "stateMutability": "nonpayable",
      "type": "constructor"
    },
    {
      "anonymous": false,
      "inputs": [
        {
          "indexed": false,
          "internalType": "string",
          "name": "description",
          "type": "string"
        }
      ],
      "name": "LogNewProvableQuery",
      "type": "event"
    },
    {
      "anonymous": false,
      "inputs": [
        {
          "indexed": false,
          "internalType": "string",
          "name": "result",
          "type": "string"
        }
      ],
      "name": "LogNewProvableResult",
      "type": "event"
    },
    {
      "inputs": [],
      "name": "grafCounter",
      "outputs": [
        {
          "internalType": "uint256",
          "name": "",
          "type": "uint256"
        }
      ],
      "stateMutability": "view",
      "type": "function",
      "constant": true
    },
    {
      "inputs": [
        {
          "internalType": "string",
          "name": "_request",
          "type": "string"
        }
      ],
      "name": "uploadGraph",
      "outputs": [],
      "stateMutability": "payable",
      "type": "function",
      "payable": true
    },
    {
      "inputs": [
        {
          "internalType": "string",
          "name": "_result",
          "type": "string"
        }
      ],
      "name": "__callback",
      "outputs": [],
      "stateMutability": "nonpayable",
      "type": "function"
    },
    {
      "inputs": [
        {
          "internalType": "string[]",
          "name": "_graph",
          "type": "string[]"
        }
      ],
      "name": "saveEditGraph",
      "outputs": [],
      "stateMutability": "nonpayable",
      "type": "function"
    },
    {
      "inputs": [
        {
          "internalType": "uint256",
          "name": "_id",
          "type": "uint256"
        }
      ],
      "name": "getGraf",
      "outputs": [
        {
          "internalType": "string[]",
          "name": "",
          "type": "string[]"
        }
      ],
      "stateMutability": "view",
      "type": "function",
      "constant": true
    },
    {
      "inputs": [
        {
          "internalType": "uint256",
          "name": "_id",
          "type": "uint256"
        }
      ],
      "name": "getOwner",
      "outputs": [
        {
          "internalType": "address",
          "name": "_owner",
          "type": "address"
        }
      ],
      "stateMutability": "view",
      "type": "function",
      "constant": true
    },
    {
      "inputs": [
        {
          "internalType": "uint256",
          "name": "_id",
          "type": "uint256"
        }
      ],
      "name": "getDateTime",
      "outputs": [
        {
          "internalType": "uint256",
          "name": "_date",
          "type": "uint256"
        }
      ],
      "stateMutability": "view",
      "type": "function",
      "constant": true
    }
  ],
  "bytecode": "0x60806040527322f5b808c7ca7eecb86a45acbfb738eb2243243b6000806101000a81548173ffffffffffffffffffffffffffffffffffffffff021916908373ffffffffffffffffffffffffffffffffffffffff16021790555060008054906101000a900473ffffffffffffffffffffffffffffffffffffffff16600160006101000a81548173ffffffffffffffffffffffffffffffffffffffff021916908373ffffffffffffffffffffffffffffffffffffffff16021790555060006002553480156100ca57600080fd5b506111f8806100da6000396000f3fe6080604052600436106100705760003560e01c8063c41f94821161004e578063c41f948214610106578063e1d8d66a14610143578063efa9f2d91461016c578063f6e156b0146101a957610070565b80632f108fce146100755780637c9186b4146100a0578063c41a360a146100c9575b600080fd5b34801561008157600080fd5b5061008a6101c5565b604051610097919061100c565b60405180910390f35b3480156100ac57600080fd5b506100c760048036038101906100c29190610cfc565b6101cb565b005b3480156100d557600080fd5b506100f060048036038101906100eb9190610d7e565b6102b6565b6040516100fd9190610f5a565b60405180910390f35b34801561011257600080fd5b5061012d60048036038101906101289190610d7e565b6102f6565b60405161013a919061100c565b60405180910390f35b34801561014f57600080fd5b5061016a60048036038101906101659190610d3d565b610316565b005b34801561017857600080fd5b50610193600480360381019061018e9190610d7e565b610489565b6040516101a09190610f75565b60405180910390f35b6101c360048036038101906101be9190610d3d565b610609565b005b60025481565b8060036000600254815260200190815260200160002060020190805190602001906101f7929190610aa8565b503360036000600254815260200190815260200160002060000160006101000a81548173ffffffffffffffffffffffffffffffffffffffff021916908373ffffffffffffffffffffffffffffffffffffffff16021790555042600360006002548152602001908152602001600020600101819055506002600081548092919060010191905055507fc4dc360d0a9c0677a3379ae0a3d81e887f761e65fdf3d7e00859d1bcd3c473896040516102ab90610fcc565b60405180910390a150565b60006003600083815260200190815260200160002060000160009054906101000a900473ffffffffffffffffffffffffffffffffffffffff169050919050565b600060036000838152602001908152602001600020600101549050919050565b60008054906101000a900473ffffffffffffffffffffffffffffffffffffffff1673ffffffffffffffffffffffffffffffffffffffff163373ffffffffffffffffffffffffffffffffffffffff161461036e57600080fd5b6060610379826106da565b90508060036000600254815260200190815260200160002060020190805190602001906103a7929190610aa8565b50600460009054906101000a900473ffffffffffffffffffffffffffffffffffffffff1660036000600254815260200190815260200160002060000160006101000a81548173ffffffffffffffffffffffffffffffffffffffff021916908373ffffffffffffffffffffffffffffffffffffffff16021790555042600360006002548152602001908152602001600020600101819055506002600081548092919060010191905055507fc4dc360d0a9c0677a3379ae0a3d81e887f761e65fdf3d7e00859d1bcd3c4738960405161047d90610fcc565b60405180910390a15050565b606080600360008481526020019081526020016000206002018054905067ffffffffffffffff811180156104bc57600080fd5b506040519080825280602002602001820160405280156104f057816020015b60608152602001906001900390816104db5790505b50905060005b60036000858152602001908152602001600020600201805490508110156105ff5760036000858152602001908152602001600020600201818154811061053857fe5b906000526020600020018054600181600116156101000203166002900480601f0160208091040260200160405190810160405280929190818152602001828054600181600116156101000203166002900480156105d65780601f106105ab576101008083540402835291602001916105d6565b820191906000526020600020905b8154815290600101906020018083116105b957829003601f168201915b50505050508282815181106105e757fe5b602002602001018190525080806001019150506104f6565b5080915050919050565b33600460006101000a81548173ffffffffffffffffffffffffffffffffffffffff021916908373ffffffffffffffffffffffffffffffffffffffff160217905550600160009054906101000a900473ffffffffffffffffffffffffffffffffffffffff1673ffffffffffffffffffffffffffffffffffffffff1663df89f819826040518263ffffffff1660e01b81526004016106a59190610f97565b600060405180830381600087803b1580156106bf57600080fd5b505af11580156106d3573d6000803e3d6000fd5b5050505050565b6060600060608390507f3c000000000000000000000000000000000000000000000000000000000000008160008151811061071157fe5b602001015160f81c60f81b7effffffffffffffffffffffffffffffffffffffffffffffffffffffffffffff19161461077e576040517f08c379a000000000000000000000000000000000000000000000000000000000815260040161077590610fec565b60405180910390fd5b60005b8151811015610800577f3c000000000000000000000000000000000000000000000000000000000000008282815181106107b757fe5b602001015160f81c60f81b7effffffffffffffffffffffffffffffffffffffffffffffffffffffffffffff191614156107f35782806001019350505b8080600101915050610781565b5060608267ffffffffffffffff8111801561081a57600080fd5b5060405190808252806020026020018201604052801561084e57816020015b60608152602001906001900390816108395790505b509050600092506000606060005b8451811015610a9a5760008314156109565760008190505b8551811015610954577f3e000000000000000000000000000000000000000000000000000000000000008682815181106108aa57fe5b602001015160f81c60f81b7effffffffffffffffffffffffffffffffffffffffffffffffffffffffffffff1916146108e9578380600101945050610947565b83806001019450508367ffffffffffffffff8111801561090857600080fd5b506040519080825280601f01601f19166020018201604052801561093b5781602001600182028036833780820191505090505b50925060009350610954565b8080600101915050610874565b505b7f3e0000000000000000000000000000000000000000000000000000000000000085828151811061098357fe5b602001015160f81c60f81b7effffffffffffffffffffffffffffffffffffffffffffffffffffffffffffff191614610a12578481815181106109c157fe5b602001015160f81c60f81b8284806001019550815181106109de57fe5b60200101907effffffffffffffffffffffffffffffffffffffffffffffffffffffffffffff1916908160001a905350610a8d565b848181518110610a1e57fe5b602001015160f81c60f81b828480600101955081518110610a3b57fe5b60200101907effffffffffffffffffffffffffffffffffffffffffffffffffffffffffffff1916908160001a90535081848780600101985081518110610a7d57fe5b6020026020010181905250600092505b808060010191505061085c565b508295505050505050919050565b828054828255906000526020600020908101928215610af7579160200282015b82811115610af6578251829080519060200190610ae6929190610b08565b5091602001919060010190610ac8565b5b509050610b049190610b96565b5090565b828054600181600116156101000203166002900490600052602060002090601f016020900481019282610b3e5760008555610b85565b82601f10610b5757805160ff1916838001178555610b85565b82800160010185558215610b85579182015b82811115610b84578251825591602001919060010190610b69565b5b509050610b929190610bba565b5090565b5b80821115610bb65760008181610bad9190610bd7565b50600101610b97565b5090565b5b80821115610bd3576000816000905550600101610bbb565b5090565b50805460018160011615610100020316600290046000825580601f10610bfd5750610c1c565b601f016020900490600052602060002090810190610c1b9190610bba565b5b50565b600082601f830112610c3057600080fd5b8135610c43610c3e82611058565b611027565b9150818183526020840193506020810190508360005b83811015610c895781358601610c6f8882610c93565b845260208401935060208301925050600181019050610c59565b5050505092915050565b600082601f830112610ca457600080fd5b8135610cb7610cb282611084565b611027565b91508082526020830160208301858383011115610cd357600080fd5b610cde838284611156565b50505092915050565b600081359050610cf6816111ab565b92915050565b600060208284031215610d0e57600080fd5b600082013567ffffffffffffffff811115610d2857600080fd5b610d3484828501610c1f565b91505092915050565b600060208284031215610d4f57600080fd5b600082013567ffffffffffffffff811115610d6957600080fd5b610d7584828501610c93565b91505092915050565b600060208284031215610d9057600080fd5b6000610d9e84828501610ce7565b91505092915050565b6000610db38383610e3f565b905092915050565b610dc48161111a565b82525050565b6000610dd5826110c4565b610ddf81856110e7565b935083602082028501610df1856110b4565b8060005b85811015610e2d5784840389528151610e0e8582610da7565b9450610e19836110da565b925060208a01995050600181019050610df5565b50829750879550505050505092915050565b6000610e4a826110cf565b610e5481856110f8565b9350610e64818560208601611165565b610e6d8161119a565b840191505092915050565b6000610e83826110cf565b610e8d8185611109565b9350610e9d818560208601611165565b610ea68161119a565b840191505092915050565b6000610ebe600b83611109565b91507f55706c6f616420677261660000000000000000000000000000000000000000006000830152602082019050919050565b6000610efe601683611109565b91507f496e636f7272656374206461746120666f726d61742e000000000000000000006000830152602082019050919050565b6000610f3e600083611109565b9150600082019050919050565b610f548161114c565b82525050565b6000602082019050610f6f6000830184610dbb565b92915050565b60006020820190508181036000830152610f8f8184610dca565b905092915050565b60006040820190508181036000830152610fb18184610e78565b90508181036020830152610fc481610f31565b905092915050565b60006020820190508181036000830152610fe581610eb1565b9050919050565b6000602082019050818103600083015261100581610ef1565b9050919050565b60006020820190506110216000830184610f4b565b92915050565b6000604051905081810181811067ffffffffffffffff8211171561104e5761104d611198565b5b8060405250919050565b600067ffffffffffffffff82111561107357611072611198565b5b602082029050602081019050919050565b600067ffffffffffffffff82111561109f5761109e611198565b5b601f19601f8301169050602081019050919050565b6000819050602082019050919050565b600081519050919050565b600081519050919050565b6000602082019050919050565b600082825260208201905092915050565b600082825260208201905092915050565b600082825260208201905092915050565b60006111258261112c565b9050919050565b600073ffffffffffffffffffffffffffffffffffffffff82169050919050565b6000819050919050565b82818337600083830152505050565b60005b83811015611183578082015181840152602081019050611168565b83811115611192576000848401525b50505050565bfe5b6000601f19601f8301169050919050565b6111b48161114c565b81146111bf57600080fd5b5056fea264697066735822122098008f3678f10f065e5eb59fde847cf21271908a595c0d2c1fd34487cb54871a64736f6c63430007050033",
  "immutableReferences": {},
  "source": "// SPDX-License-Identifier: GPL-3.0\npragma solidity >=0.4.22 <0.9.0;\npragma abicoder v2;\n\nimport \"./oracleAPI.sol\";\n\ncontract RDF is OracleAPI {\n\n    event LogNewProvableQuery(string description);\n    event LogNewProvableResult(string result);\n\n    // Variable for determining the id of the graph\n    uint256 public grafCounter = 0;\n\n    // Struct of graph\n    struct Graph{\n      address owner;\n      uint256 date;\n      string[] triplets;\n    }\n\n    // Mapping from graph ID to graph\n    mapping(uint256 => Graph) graphs;\n\n    /* mapping(uint256 => string[]) graphs; */\n\n    /* mapping(uint256 => address) owners; */\n\n    /* mapping(uint256 => string) metadatas; */\n\n    address private owner;\n\n    constructor() {\n    }\n\n    /**\n    @notice funkcja do lodowania grafa\n    @param _request: url address ktury zwruci graf\n    */\n    function uploadGraph(string memory _request) public payable{\n        // emit LogNewProvableQuery(\"Provable query was sent, standing by for the answer...\");\n        owner = msg.sender;\n        oracle.createRequest(_request,\"\");\n    }\n\n    /**\n    @param  _result: zwrucony graf\n    */\n    function __callback(string memory _result) public {\n        require(msg.sender == OracleAddress);\n        string[] memory tmp = split(_result);\n        graphs[grafCounter].triplets = tmp;\n        graphs[grafCounter].owner = owner;\n        graphs[grafCounter].date = block.timestamp;\n        grafCounter++;\n        emit LogNewProvableQuery(\"Upload graf\");\n    }\n\n    function saveEditGraph(string[] memory _graph) public {\n        // require(msg.sender == OracleAddress);\n        // string[] memory tmp = split(_result);\n        /* graphs[grafCounter] = _graph; */\n\n        graphs[grafCounter].triplets = _graph;\n        graphs[grafCounter].owner = msg.sender;\n        graphs[grafCounter].date = block.timestamp;\n\n        grafCounter++;\n        emit LogNewProvableQuery(\"Upload graf\");\n    }\n\n    /**\n    * @notice funkcja do splitowania grafa\n    * @dev funkcja dziala tylko wtedy gdy string ma posta <><><><><>...<><><>\n    * @param _ontology_terms graf zapisany jako string\n    * @return string[] tablicu trujek\n    */\n    function split(string memory _ontology_terms) private pure returns(string[] memory){\n        uint256 ile = 0;\n        bytes memory stringAsBytesArray = bytes(_ontology_terms);\n        require(stringAsBytesArray[0] == '<', \"Incorrect data format.\");\n        for(uint256 i = 0; i < stringAsBytesArray.length; i++){\n            if(stringAsBytesArray[i] == '<'){\n                ile++;\n            }\n        }\n\n        string[] memory array = new string[](ile);\n        ile = 0;\n        uint256 count = 0;\n        bytes memory tmp;\n\n        for(uint256 i = 0; i < stringAsBytesArray.length; i++){\n            if(count == 0){\n                for(uint256 j = i; j < stringAsBytesArray.length; j++){\n                    if(stringAsBytesArray[j] != '>'){\n                        count++;\n                    } else {\n                        count++;\n                        tmp = new bytes(count);\n                        count = 0;\n                        break;\n                    }\n                }\n            }\n            if(stringAsBytesArray[i] != '>'){\n                tmp[count++] = stringAsBytesArray[i];\n            } else {\n                tmp[count++] = stringAsBytesArray[i];\n                array[ile++] = string(tmp);\n                count = 0;\n            }\n        }\n\n        return array;\n    }\n\n    /**\n    @notice poluczic graf po id\n    @param _id jest indyfikatorem graf\n    @return string[] tablica trujek\n    */\n    function getGraf(uint256 _id) public view returns(string[] memory){\n      /* require(_id >= grafCounter, \"Grafa o takim indyfikatorze nie istnieje.\"); */\n      string[] memory tmp = new string[](graphs[_id].triplets.length);\n      for(uint256 i = 0; i < graphs[_id].triplets.length; i++){\n        tmp[i] = graphs[_id].triplets[i];\n      }\n      return tmp;\n    }\n\n    /**\n    @notice poluczic adres wlasciciela grafu po id\n    @param _id jest indefikatorem grafu\n    @return _owner address wlascila grafu\n    */\n    function getOwner(uint256 _id) public view returns(address _owner){\n      /* return owners[_id]; */\n      /* require(_id >= grafCounter, \"Grafa o takim indyfikatorze nie istnieje.\"); */\n      return graphs[_id].owner;\n    }\n\n    /**\n    @notice poluczic datu zapisania grafu\n    @param _id jest indyfikatorem grafu\n    */\n    function getDateTime(uint256 _id) public view returns(uint256 _date){\n      /* require(_id >= grafCounter, \"Grafa o takim indyfikatorze nie istnieje.\"); */\n      return graphs[_id].date;\n    }\n\n    /* function check_rdf(string memory _ontology_IRI, string memory _rdf_terms) public view returns(string memory){\n        if(ontologies[_ontology_IRI].length > 0){\n            string memory str = \"\";\n            string[] memory rdfTerms = split(_rdf_terms);\n            for(uint256 i = 0; i < rdfTerms.length; i++){\n                for(uint j = 0; j < ontologies[_ontology_IRI].length; j++){\n                    if(bytes(rdfTerms[i]).length == bytes(ontologies[_ontology_IRI][j]).length){\n                        string memory tmp = ontologies[_ontology_IRI][j];\n                        if(keccak256(bytes(rdfTerms[i])) == keccak256(bytes(tmp))){\n                            str = string(abi.encodePacked(str, rdfTerms[i]));\n                            break;\n                        }\n                    }\n                }\n            }\n            return str;\n        } else {\n            return \"ontology not found\";\n        }\n    } */\n\n}\n",
  "sourcePath": "/home/kostia/Projects/Mako2/Mako2/dapp/contracts/RDF.sol",
  "compiler": {
    "name": "solc",
    "version": "0.7.5+commit.eb77ed08.Emscripten.clang"
  },
  "schemaVersion": "3.4.1",
  "updatedAt": "2021-10-11T09:34:20.062Z",
  "networkType": "ethereum",
  "devdoc": {
    "kind": "dev",
    "methods": {
      "__callback(string)": {
        "params": {
          "_result": ": zwrucony graf"
        }
      },
      "getDateTime(uint256)": {
        "params": {
          "_id": "jest indyfikatorem grafu"
        }
      },
      "getGraf(uint256)": {
        "params": {
          "_id": "jest indyfikatorem graf"
        },
        "returns": {
          "_0": "string[] tablica trujek"
        }
      },
      "getOwner(uint256)": {
        "params": {
          "_id": "jest indefikatorem grafu"
        },
        "returns": {
          "_owner": "address wlascila grafu"
        }
      },
      "uploadGraph(string)": {
        "params": {
          "_request": ": url address ktury zwruci graf"
        }
      }
    },
    "version": 1
  },
  "userdoc": {
    "kind": "user",
    "methods": {
      "getDateTime(uint256)": {
        "notice": "poluczic datu zapisania grafu"
      },
      "getGraf(uint256)": {
        "notice": "poluczic graf po id"
      },
      "getOwner(uint256)": {
        "notice": "poluczic adres wlasciciela grafu po id"
      },
      "uploadGraph(string)": {
        "notice": "funkcja do lodowania grafa"
      }
    },
    "version": 1
  }
}