{
  "contractName": "Oracle",
  "abi": [
    {
      "anonymous": false,
      "inputs": [
        {
          "indexed": false,
          "name": "_adr",
          "type": "address"
        },
        {
          "indexed": false,
          "name": "id",
          "type": "uint256"
        },
        {
          "indexed": false,
          "name": "urlToQuery",
          "type": "string"
        },
        {
          "indexed": false,
          "name": "attributeToFetch",
          "type": "string"
        }
      ],
      "name": "NewRequest",
      "type": "event"
    },
    {
      "anonymous": false,
      "inputs": [
        {
          "indexed": false,
          "name": "id",
          "type": "uint256"
        },
        {
          "indexed": false,
          "name": "urlToQuery",
          "type": "string"
        },
        {
          "indexed": false,
          "name": "attributeToFetch",
          "type": "string"
        },
        {
          "indexed": false,
          "name": "agreedValue",
          "type": "string"
        }
      ],
      "name": "UpdatedRequest",
      "type": "event"
    },
    {
      "constant": false,
      "inputs": [
        {
          "name": "_urlToQuery",
          "type": "string"
        },
        {
          "name": "_attributeToFetch",
          "type": "string"
        }
      ],
      "name": "createRequest",
      "outputs": [],
      "payable": false,
      "stateMutability": "nonpayable",
      "type": "function"
    },
    {
      "constant": false,
      "inputs": [
        {
          "name": "_id",
          "type": "uint256"
        },
        {
          "name": "_valueRetrieved",
          "type": "string"
        }
      ],
      "name": "updateRequest",
      "outputs": [],
      "payable": false,
      "stateMutability": "nonpayable",
      "type": "function"
    }
  ],
  "bytecode": "0x6080604052600060015534801561001557600080fd5b506109af806100256000396000f3fe608060405260043610610046576000357c010000000000000000000000000000000000000000000000000000000090048063cfb0ac991461004b578063df89f8191461011d575b600080fd5b34801561005757600080fd5b5061011b6004803603604081101561006e57600080fd5b81019080803590602001909291908035906020019064010000000081111561009557600080fd5b8201836020820111156100a757600080fd5b803590602001918460018302840111640100000000831117156100c957600080fd5b91908080601f016020809104026020016040519081016040528093929190818152602001838380828437600081840152601f19601f82011690508083019250505050505050919291929050505061027c565b005b34801561012957600080fd5b5061027a6004803603604081101561014057600080fd5b810190808035906020019064010000000081111561015d57600080fd5b82018360208201111561016f57600080fd5b8035906020019184600183028401116401000000008311171561019157600080fd5b91908080601f016020809104026020016040519081016040528093929190818152602001838380828437600081840152601f19601f820116905080830192505050505050509192919290803590602001906401000000008111156101f457600080fd5b82018360208201111561020657600080fd5b8035906020019184600183028401116401000000008311171561022857600080fd5b91908080601f016020809104026020016040519081016040528093929190818152602001838380828437600081840152601f19601f8201169050808301925050505050505091929192905050506105b2565b005b6000808381548110151561028c57fe5b9060005260206000209060050201905060008160010160009054906101000a900473ffffffffffffffffffffffffffffffffffffffff169050828260040190805190602001906102dd92919061085e565b507f51f1e1f00d186e79f8ea7c82be079fcdd49fe881904a9cdc1903345eb69d38318260000154836002018460030185600401604051808581526020018060200180602001806020018481038452878181546001816001161561010002031660029004815260200191508054600181600116156101000203166002900480156103a75780601f1061037c576101008083540402835291602001916103a7565b820191906000526020600020905b81548152906001019060200180831161038a57829003601f168201915b505084810383528681815460018160011615610100020316600290048152602001915080546001816001161561010002031660029004801561042a5780601f106103ff5761010080835404028352916020019161042a565b820191906000526020600020905b81548152906001019060200180831161040d57829003601f168201915b50508481038252858181546001816001161561010002031660029004815260200191508054600181600116156101000203166002900480156104ad5780601f10610482576101008083540402835291602001916104ad565b820191906000526020600020905b81548152906001019060200180831161049057829003601f168201915b505097505050505050505060405180910390a18073ffffffffffffffffffffffffffffffffffffffff1663e1d8d66a846040518263ffffffff167c01000000000000000000000000000000000000000000000000000000000281526004018080602001828103825283818151815260200191508051906020019080838360005b8381101561054857808201518184015260208101905061052d565b50505050905090810190601f1680156105755780820380516001836020036101000a031916815260200191505b5092505050600060405180830381600087803b15801561059457600080fd5b505af11580156105a8573d6000803e3d6000fd5b5050505050505050565b60008060a06040519081016040528060015481526020013373ffffffffffffffffffffffffffffffffffffffff1681526020018581526020018481526020016020604051908101604052806000815250815250908060018154018082558091505090600182039060005260206000209060050201600090919290919091506000820151816000015560208201518160010160006101000a81548173ffffffffffffffffffffffffffffffffffffffff021916908373ffffffffffffffffffffffffffffffffffffffff160217905550604082015181600201908051906020019061069d9291906108de565b5060608201518160030190805190602001906106ba9291906108de565b5060808201518160040190805190602001906106d79291906108de565b5050509050600080600183038154811015156106ef57fe5b906000526020600020906005020190507f08eb6a67ea04b1ea1d8e194451bb84f5eabc92e94bb26da1f3a34997a7f9d40b336001548686604051808573ffffffffffffffffffffffffffffffffffffffff1673ffffffffffffffffffffffffffffffffffffffff1681526020018481526020018060200180602001838103835285818151815260200191508051906020019080838360005b838110156107a2578082015181840152602081019050610787565b50505050905090810190601f1680156107cf5780820380516001836020036101000a031916815260200191505b50838103825284818151815260200191508051906020019080838360005b838110156108085780820151818401526020810190506107ed565b50505050905090810190601f1680156108355780820380516001836020036101000a031916815260200191505b50965050505050505060405180910390a160016000815480929190600101919050555050505050565b828054600181600116156101000203166002900490600052602060002090601f016020900481019282601f1061089f57805160ff19168380011785556108cd565b828001600101855582156108cd579182015b828111156108cc5782518255916020019190600101906108b1565b5b5090506108da919061095e565b5090565b828054600181600116156101000203166002900490600052602060002090601f016020900481019282601f1061091f57805160ff191683800117855561094d565b8280016001018555821561094d579182015b8281111561094c578251825591602001919060010190610931565b5b50905061095a919061095e565b5090565b61098091905b8082111561097c576000816000905550600101610964565b5090565b9056fea165627a7a72305820ead39a3d42c63936575844d1b4d39e96081c51416ba793906c58e6872b6cfac10029",
  "source": "pragma solidity >=0.4.21 <0.6.0;\n\ncontract ContractInterface {\n    function __callback(string memory _result) public;\n} \n\ncontract Oracle {\n    \n    event NewRequest(address _adr, uint id, string urlToQuery, string attributeToFetch);\n    event UpdatedRequest (uint id, string urlToQuery, string attributeToFetch, string agreedValue);\n\n    struct Request {\n        uint id;\n        address addressSmartContract;\n        string urlToQuery;\n        string attributeToFetch;\n        string agreedValue;\n    }\n\n    Request[] requests;\n    uint currentId = 0;\n\n    function createRequest(string memory _urlToQuery, string memory _attributeToFetch) public {\n        uint length = requests.push(Request(currentId, msg.sender,_urlToQuery, _attributeToFetch, \"\"));\n        Request storage r = requests[length - 1];\n        \n        emit NewRequest (msg.sender, currentId, _urlToQuery, _attributeToFetch);\n\n        currentId++;\n    }\n\n    function updateRequest (uint _id, string memory _valueRetrieved) public {\n\n        Request storage currRequest = requests[_id];\n\n        ContractInterface contractInterface = ContractInterface(currRequest.addressSmartContract);\n\n        currRequest.agreedValue = _valueRetrieved;\n        emit UpdatedRequest (currRequest.id, currRequest.urlToQuery, currRequest.attributeToFetch, currRequest.agreedValue);\n\n        contractInterface.__callback(_valueRetrieved);\n\n    }\n\n}",
  "sourcePath": "/home/kostia/Projects/Mako2/Mako2/Oracle/contracts/Oracle.sol",
  "compiler": {
    "name": "solc",
    "version": "0.5.1+commit.c8a2cb62.Emscripten.clang"
  },
  "schemaVersion": "3.4.1",
  "updatedAt": "2021-10-12T19:27:08.353Z",
  "networkType": "ethereum",
  "devdoc": {
    "methods": {}
  },
  "userdoc": {
    "methods": {}
  }
}