{
  "contractName": "RDF",
  "abi": [
    {
      "inputs": [],
      "stateMutability": "nonpayable",
      "type": "constructor"
    },
    {
      "anonymous": false,
      "inputs": [
        {
          "indexed": false,
          "internalType": "string",
          "name": "description",
          "type": "string"
        }
      ],
      "name": "LogNewProvableQuery",
      "type": "event"
    },
    {
      "anonymous": false,
      "inputs": [
        {
          "indexed": false,
          "internalType": "string",
          "name": "result",
          "type": "string"
        }
      ],
      "name": "LogNewProvableResult",
      "type": "event"
    },
    {
      "inputs": [],
      "name": "grafCounter",
      "outputs": [
        {
          "internalType": "uint256",
          "name": "",
          "type": "uint256"
        }
      ],
      "stateMutability": "view",
      "type": "function",
      "constant": true
    },
    {
      "inputs": [
        {
          "internalType": "string",
          "name": "_request",
          "type": "string"
        }
      ],
      "name": "loadGraph",
      "outputs": [],
      "stateMutability": "payable",
      "type": "function",
      "payable": true
    },
    {
      "inputs": [
        {
          "internalType": "string",
          "name": "_result",
          "type": "string"
        }
      ],
      "name": "__callback",
      "outputs": [],
      "stateMutability": "nonpayable",
      "type": "function"
    },
    {
      "inputs": [
        {
          "internalType": "string[]",
          "name": "_graph",
          "type": "string[]"
        }
      ],
      "name": "saveEditGraph",
      "outputs": [],
      "stateMutability": "nonpayable",
      "type": "function"
    },
    {
      "inputs": [
        {
          "internalType": "uint256",
          "name": "_id",
          "type": "uint256"
        }
      ],
      "name": "getGraf",
      "outputs": [
        {
          "internalType": "string[]",
          "name": "",
          "type": "string[]"
        }
      ],
      "stateMutability": "view",
      "type": "function",
      "constant": true
    }
  ],
  "bytecode": "0x608060405273c9f4e7aace3314017dff14455e17e2b28dbeec2e6000806101000a81548173ffffffffffffffffffffffffffffffffffffffff021916908373ffffffffffffffffffffffffffffffffffffffff16021790555060008054906101000a900473ffffffffffffffffffffffffffffffffffffffff16600160006101000a81548173ffffffffffffffffffffffffffffffffffffffff021916908373ffffffffffffffffffffffffffffffffffffffff16021790555060006002553480156100ca57600080fd5b50610f42806100da6000396000f3fe60806040526004361061004a5760003560e01c80632f108fce1461004f5780637c9186b41461007a5780638b59fe50146100a3578063e1d8d66a146100bf578063efa9f2d9146100e8575b600080fd5b34801561005b57600080fd5b50610064610125565b6040516100719190610d88565b60405180910390f35b34801561008657600080fd5b506100a1600480360381019061009c9190610aa2565b61012b565b005b6100bd60048036038101906100b89190610ae3565b61019f565b005b3480156100cb57600080fd5b506100e660048036038101906100e19190610ae3565b61022f565b005b3480156100f457600080fd5b5061010f600480360381019061010a9190610b24565b610309565b60405161011c9190610cf1565b60405180910390f35b60025481565b80600360006002548152602001908152602001600020908051906020019061015492919061084e565b506002600081548092919060010191905055507fc4dc360d0a9c0677a3379ae0a3d81e887f761e65fdf3d7e00859d1bcd3c4738960405161019490610d68565b60405180910390a150565b600160009054906101000a900473ffffffffffffffffffffffffffffffffffffffff1673ffffffffffffffffffffffffffffffffffffffff1663df89f819826040518263ffffffff1660e01b81526004016101fa9190610d13565b600060405180830381600087803b15801561021457600080fd5b505af1158015610228573d6000803e3d6000fd5b5050505050565b60008054906101000a900473ffffffffffffffffffffffffffffffffffffffff1673ffffffffffffffffffffffffffffffffffffffff163373ffffffffffffffffffffffffffffffffffffffff161461028757600080fd5b606061029282610480565b90508060036000600254815260200190815260200160002090805190602001906102bd92919061084e565b506002600081548092919060010191905055507fc4dc360d0a9c0677a3379ae0a3d81e887f761e65fdf3d7e00859d1bcd3c473896040516102fd90610d68565b60405180910390a15050565b606080600360008481526020019081526020016000208054905067ffffffffffffffff8111801561033957600080fd5b5060405190808252806020026020018201604052801561036d57816020015b60608152602001906001900390816103585790505b50905060005b6003600085815260200190815260200160002080549050811015610476576003600085815260200190815260200160002081815481106103af57fe5b906000526020600020018054600181600116156101000203166002900480601f01602080910402602001604051908101604052809291908181526020018280546001816001161561010002031660029004801561044d5780601f106104225761010080835404028352916020019161044d565b820191906000526020600020905b81548152906001019060200180831161043057829003601f168201915b505050505082828151811061045e57fe5b60200260200101819052508080600101915050610373565b5080915050919050565b6060600060608390507f3c00000000000000000000000000000000000000000000000000000000000000816000815181106104b757fe5b602001015160f81c60f81b7effffffffffffffffffffffffffffffffffffffffffffffffffffffffffffff191614610524576040517f08c379a000000000000000000000000000000000000000000000000000000000815260040161051b90610d48565b60405180910390fd5b60005b81518110156105a6577f3c0000000000000000000000000000000000000000000000000000000000000082828151811061055d57fe5b602001015160f81c60f81b7effffffffffffffffffffffffffffffffffffffffffffffffffffffffffffff191614156105995782806001019350505b8080600101915050610527565b5060608267ffffffffffffffff811180156105c057600080fd5b506040519080825280602002602001820160405280156105f457816020015b60608152602001906001900390816105df5790505b509050600092506000606060005b84518110156108405760008314156106fc5760008190505b85518110156106fa577f3e0000000000000000000000000000000000000000000000000000000000000086828151811061065057fe5b602001015160f81c60f81b7effffffffffffffffffffffffffffffffffffffffffffffffffffffffffffff19161461068f5783806001019450506106ed565b83806001019450508367ffffffffffffffff811180156106ae57600080fd5b506040519080825280601f01601f1916602001820160405280156106e15781602001600182028036833780820191505090505b509250600093506106fa565b808060010191505061061a565b505b7f3e0000000000000000000000000000000000000000000000000000000000000085828151811061072957fe5b602001015160f81c60f81b7effffffffffffffffffffffffffffffffffffffffffffffffffffffffffffff1916146107b85784818151811061076757fe5b602001015160f81c60f81b82848060010195508151811061078457fe5b60200101907effffffffffffffffffffffffffffffffffffffffffffffffffffffffffffff1916908160001a905350610833565b8481815181106107c457fe5b602001015160f81c60f81b8284806001019550815181106107e157fe5b60200101907effffffffffffffffffffffffffffffffffffffffffffffffffffffffffffff1916908160001a9053508184878060010198508151811061082357fe5b6020026020010181905250600092505b8080600101915050610602565b508295505050505050919050565b82805482825590600052602060002090810192821561089d579160200282015b8281111561089c57825182908051906020019061088c9291906108ae565b509160200191906001019061086e565b5b5090506108aa919061093c565b5090565b828054600181600116156101000203166002900490600052602060002090601f0160209004810192826108e4576000855561092b565b82601f106108fd57805160ff191683800117855561092b565b8280016001018555821561092b579182015b8281111561092a57825182559160200191906001019061090f565b5b5090506109389190610960565b5090565b5b8082111561095c5760008181610953919061097d565b5060010161093d565b5090565b5b80821115610979576000816000905550600101610961565b5090565b50805460018160011615610100020316600290046000825580601f106109a357506109c2565b601f0160209004906000526020600020908101906109c19190610960565b5b50565b600082601f8301126109d657600080fd5b81356109e96109e482610dd4565b610da3565b9150818183526020840193506020810190508360005b83811015610a2f5781358601610a158882610a39565b8452602084019350602083019250506001810190506109ff565b5050505092915050565b600082601f830112610a4a57600080fd5b8135610a5d610a5882610e00565b610da3565b91508082526020830160208301858383011115610a7957600080fd5b610a84838284610ea0565b50505092915050565b600081359050610a9c81610ef5565b92915050565b600060208284031215610ab457600080fd5b600082013567ffffffffffffffff811115610ace57600080fd5b610ada848285016109c5565b91505092915050565b600060208284031215610af557600080fd5b600082013567ffffffffffffffff811115610b0f57600080fd5b610b1b84828501610a39565b91505092915050565b600060208284031215610b3657600080fd5b6000610b4484828501610a8d565b91505092915050565b6000610b598383610bd6565b905092915050565b6000610b6c82610e40565b610b768185610e63565b935083602082028501610b8885610e30565b8060005b85811015610bc45784840389528151610ba58582610b4d565b9450610bb083610e56565b925060208a01995050600181019050610b8c565b50829750879550505050505092915050565b6000610be182610e4b565b610beb8185610e74565b9350610bfb818560208601610eaf565b610c0481610ee4565b840191505092915050565b6000610c1a82610e4b565b610c248185610e85565b9350610c34818560208601610eaf565b610c3d81610ee4565b840191505092915050565b6000610c55601383610e85565b91507f4e69652070726177696c6e6a20737472696e67000000000000000000000000006000830152602082019050919050565b6000610c95600983610e85565b91507f4c6f6164206772616600000000000000000000000000000000000000000000006000830152602082019050919050565b6000610cd5600083610e85565b9150600082019050919050565b610ceb81610e96565b82525050565b60006020820190508181036000830152610d0b8184610b61565b905092915050565b60006040820190508181036000830152610d2d8184610c0f565b90508181036020830152610d4081610cc8565b905092915050565b60006020820190508181036000830152610d6181610c48565b9050919050565b60006020820190508181036000830152610d8181610c88565b9050919050565b6000602082019050610d9d6000830184610ce2565b92915050565b6000604051905081810181811067ffffffffffffffff82111715610dca57610dc9610ee2565b5b8060405250919050565b600067ffffffffffffffff821115610def57610dee610ee2565b5b602082029050602081019050919050565b600067ffffffffffffffff821115610e1b57610e1a610ee2565b5b601f19601f8301169050602081019050919050565b6000819050602082019050919050565b600081519050919050565b600081519050919050565b6000602082019050919050565b600082825260208201905092915050565b600082825260208201905092915050565b600082825260208201905092915050565b6000819050919050565b82818337600083830152505050565b60005b83811015610ecd578082015181840152602081019050610eb2565b83811115610edc576000848401525b50505050565bfe5b6000601f19601f8301169050919050565b610efe81610e96565b8114610f0957600080fd5b5056fea2646970667358221220eac7f74134fffb5e9dbd51e655e3ef4e6f51272bcd83b6cad7f906ab62dad05d64736f6c63430007050033",
  "immutableReferences": {},
  "source": "pragma solidity >=0.4.22 <0.9.0;\npragma abicoder v2;\n\nimport \"./oracleAPI.sol\";\n\n\ncontract RDF is OracleAPI {\n\n    event LogNewProvableQuery(string description);\n    event LogNewProvableResult(string result);\n\n    uint256 public grafCounter = 0;\n\n    mapping(uint256 => string[]) graphs;\n\n    constructor() {\n    }\n\n    function loadGraph(string memory _request) public payable{\n        // emit LogNewProvableQuery(\"Provable query was sent, standing by for the answer...\");\n        oracle.createRequest(_request,\"\");\n    }\n\n    function __callback(string memory _result) public {\n        require(msg.sender == OracleAddress);\n        string[] memory tmp = split(_result);\n        graphs[grafCounter] = tmp;\n        grafCounter++;\n        emit LogNewProvableQuery(\"Load graf\");\n    }\n\n    function saveEditGraph(string[] memory _graph) public {\n        // require(msg.sender == OracleAddress);\n        // string[] memory tmp = split(_result);\n        graphs[grafCounter] = _graph;\n        grafCounter++;\n        emit LogNewProvableQuery(\"Load graf\");\n    }\n\n    function split(string memory _ontology_terms) private pure returns(string[] memory){\n        uint256 ile = 0; \n        bytes memory stringAsBytesArray = bytes(_ontology_terms);\n        // require(ile == 100, \"Nie prawilnj string\");\n        require(stringAsBytesArray[0] == '<', \"Nie prawilnj string\");\n        // require(stringAsBytesArray[stringAsBytesArray.length - 1] == '>', \"Nie prawilnj string\");\n        for(uint256 i = 0; i < stringAsBytesArray.length; i++){\n            if(stringAsBytesArray[i] == '<'){\n                ile++;\n            }\n        }\n\n        string[] memory array = new string[](ile);\n        ile = 0;\n        uint256 count = 0;\n        bytes memory tmp;\n\n        for(uint256 i = 0; i < stringAsBytesArray.length; i++){\n            if(count == 0){\n                for(uint256 j = i; j < stringAsBytesArray.length; j++){\n                    if(stringAsBytesArray[j] != '>'){\n                        count++;\n                    } else {\n                        count++;\n                        tmp = new bytes(count);\n                        count = 0;\n                        break;\n                    }\n                }\n            }\n            if(stringAsBytesArray[i] != '>'){\n                tmp[count++] = stringAsBytesArray[i];\n            } else {\n                tmp[count++] = stringAsBytesArray[i];\n                array[ile++] = string(tmp);\n                count = 0;\n            }\n        }\n\n        return array;\n    } \n\n    function getGraf(uint256 _id) public view returns(string[] memory){\n        string[] memory tmp = new string[](graphs[_id].length);\n        for(uint256 i = 0; i < graphs[_id].length; i++){\n            tmp[i] = graphs[_id][i];\n        }\n        return tmp;\n    }\n\n}\n",
  "sourcePath": "/home/kostia/Projects/Ethereum/Rdf-2/dapp/contracts/RDF.sol",
  "compiler": {
    "name": "solc",
    "version": "0.7.5+commit.eb77ed08.Emscripten.clang"
  },
  "schemaVersion": "3.4.1",
  "updatedAt": "2021-10-06T22:43:37.672Z",
  "networkType": "ethereum",
  "devdoc": {
    "kind": "dev",
    "methods": {},
    "version": 1
  },
  "userdoc": {
    "kind": "user",
    "methods": {},
    "version": 1
  }
}