{
  "contractName": "RDF",
  "abi": [
    {
      "inputs": [],
      "stateMutability": "nonpayable",
      "type": "constructor"
    },
    {
      "anonymous": false,
      "inputs": [
        {
          "indexed": false,
          "internalType": "string",
          "name": "description",
          "type": "string"
        }
      ],
      "name": "LogNewProvableQuery",
      "type": "event"
    },
    {
      "anonymous": false,
      "inputs": [
        {
          "indexed": false,
          "internalType": "string",
          "name": "result",
          "type": "string"
        }
      ],
      "name": "LogNewProvableResult",
      "type": "event"
    },
    {
      "inputs": [],
      "name": "grafCounter",
      "outputs": [
        {
          "internalType": "uint256",
          "name": "",
          "type": "uint256"
        }
      ],
      "stateMutability": "view",
      "type": "function",
      "constant": true
    },
    {
      "inputs": [
        {
          "internalType": "string",
          "name": "_request",
          "type": "string"
        }
      ],
      "name": "uploadGraph",
      "outputs": [],
      "stateMutability": "payable",
      "type": "function",
      "payable": true
    },
    {
      "inputs": [
        {
          "internalType": "string",
          "name": "_result",
          "type": "string"
        }
      ],
      "name": "__callback",
      "outputs": [],
      "stateMutability": "nonpayable",
      "type": "function"
    },
    {
      "inputs": [
        {
          "internalType": "string[]",
          "name": "_graph",
          "type": "string[]"
        }
      ],
      "name": "saveEditGraph",
      "outputs": [],
      "stateMutability": "nonpayable",
      "type": "function"
    },
    {
      "inputs": [
        {
          "internalType": "uint256",
          "name": "_id",
          "type": "uint256"
        }
      ],
      "name": "getGraf",
      "outputs": [
        {
          "internalType": "string[]",
          "name": "",
          "type": "string[]"
        }
      ],
      "stateMutability": "view",
      "type": "function",
      "constant": true
    },
    {
      "inputs": [
        {
          "internalType": "uint256",
          "name": "_id",
          "type": "uint256"
        }
      ],
      "name": "getOwner",
      "outputs": [
        {
          "internalType": "address",
          "name": "_owner",
          "type": "address"
        }
      ],
      "stateMutability": "view",
      "type": "function",
      "constant": true
    },
    {
      "inputs": [
        {
          "internalType": "uint256",
          "name": "_id",
          "type": "uint256"
        }
      ],
      "name": "getDateTime",
      "outputs": [
        {
          "internalType": "uint256",
          "name": "_date",
          "type": "uint256"
        }
      ],
      "stateMutability": "view",
      "type": "function",
      "constant": true
    },
    {
      "inputs": [
        {
          "internalType": "uint256",
          "name": "_id",
          "type": "uint256"
        },
        {
          "internalType": "string[]",
          "name": "_rdf_terms",
          "type": "string[]"
        }
      ],
      "name": "check_rdf",
      "outputs": [
        {
          "internalType": "string",
          "name": "",
          "type": "string"
        }
      ],
      "stateMutability": "view",
      "type": "function",
      "constant": true
    }
  ],
  "bytecode": "0x608060405273b9a219631aed55ebc3d998f17c3840b7ec39c0cc6000806101000a81548173ffffffffffffffffffffffffffffffffffffffff021916908373ffffffffffffffffffffffffffffffffffffffff16021790555060008054906101000a900473ffffffffffffffffffffffffffffffffffffffff16600160006101000a81548173ffffffffffffffffffffffffffffffffffffffff021916908373ffffffffffffffffffffffffffffffffffffffff16021790555060006002553480156100ca57600080fd5b5061150c806100da6000396000f3fe60806040526004361061007b5760003560e01c8063c41f94821161004e578063c41f94821461014e578063e1d8d66a1461018b578063efa9f2d9146101b4578063f6e156b0146101f15761007b565b80632f108fce146100805780634d1dd0a9146100ab5780637c9186b4146100e8578063c41a360a14610111575b600080fd5b34801561008c57600080fd5b5061009561020d565b6040516100a29190611315565b60405180910390f35b3480156100b757600080fd5b506100d260048036038101906100cd9190610fe5565b610213565b6040516100df919061127e565b60405180910390f35b3480156100f457600080fd5b5061010f600480360381019061010a9190610f3a565b610409565b005b34801561011d57600080fd5b5061013860048036038101906101339190610fbc565b6104f4565b6040516101459190611241565b60405180910390f35b34801561015a57600080fd5b5061017560048036038101906101709190610fbc565b610534565b6040516101829190611315565b60405180910390f35b34801561019757600080fd5b506101b260048036038101906101ad9190610f7b565b610554565b005b3480156101c057600080fd5b506101db60048036038101906101d69190610fbc565b6106c7565b6040516101e8919061125c565b60405180910390f35b61020b60048036038101906102069190610f7b565b610847565b005b60025481565b60608060405180602001604052806000815250905060005b83518110156103fe5760005b60036000878152602001908152602001600020600201805490508110156103f05760036000878152602001908152602001600020600201818154811061027957fe5b906000526020600020018054600181600116156101000203166002900490508583815181106102a457fe5b60200260200101515114156103e35760606003600088815260200190815260200160002060020182815481106102d657fe5b906000526020600020018054600181600116156101000203166002900480601f0160208091040260200160405190810160405280929190818152602001828054600181600116156101000203166002900480156103745780601f1061034957610100808354040283529160200191610374565b820191906000526020600020905b81548152906001019060200180831161035757829003601f168201915b50505050509050808051906020012086848151811061038f57fe5b60200260200101518051906020012014156103e157838684815181106103b157fe5b60200260200101516040516020016103ca92919061121d565b6040516020818303038152906040529350506103f0565b505b8080600101915050610237565b50808060010191505061022b565b508091505092915050565b806003600060025481526020019081526020016000206002019080519060200190610435929190610ce6565b503360036000600254815260200190815260200160002060000160006101000a81548173ffffffffffffffffffffffffffffffffffffffff021916908373ffffffffffffffffffffffffffffffffffffffff16021790555042600360006002548152602001908152602001600020600101819055506002600081548092919060010191905055507fc4dc360d0a9c0677a3379ae0a3d81e887f761e65fdf3d7e00859d1bcd3c473896040516104e9906112d5565b60405180910390a150565b60006003600083815260200190815260200160002060000160009054906101000a900473ffffffffffffffffffffffffffffffffffffffff169050919050565b600060036000838152602001908152602001600020600101549050919050565b60008054906101000a900473ffffffffffffffffffffffffffffffffffffffff1673ffffffffffffffffffffffffffffffffffffffff163373ffffffffffffffffffffffffffffffffffffffff16146105ac57600080fd5b60606105b782610918565b90508060036000600254815260200190815260200160002060020190805190602001906105e5929190610ce6565b50600460009054906101000a900473ffffffffffffffffffffffffffffffffffffffff1660036000600254815260200190815260200160002060000160006101000a81548173ffffffffffffffffffffffffffffffffffffffff021916908373ffffffffffffffffffffffffffffffffffffffff16021790555042600360006002548152602001908152602001600020600101819055506002600081548092919060010191905055507fc4dc360d0a9c0677a3379ae0a3d81e887f761e65fdf3d7e00859d1bcd3c473896040516106bb906112d5565b60405180910390a15050565b606080600360008481526020019081526020016000206002018054905067ffffffffffffffff811180156106fa57600080fd5b5060405190808252806020026020018201604052801561072e57816020015b60608152602001906001900390816107195790505b50905060005b600360008581526020019081526020016000206002018054905081101561083d5760036000858152602001908152602001600020600201818154811061077657fe5b906000526020600020018054600181600116156101000203166002900480601f0160208091040260200160405190810160405280929190818152602001828054600181600116156101000203166002900480156108145780601f106107e957610100808354040283529160200191610814565b820191906000526020600020905b8154815290600101906020018083116107f757829003601f168201915b505050505082828151811061082557fe5b60200260200101819052508080600101915050610734565b5080915050919050565b33600460006101000a81548173ffffffffffffffffffffffffffffffffffffffff021916908373ffffffffffffffffffffffffffffffffffffffff160217905550600160009054906101000a900473ffffffffffffffffffffffffffffffffffffffff1673ffffffffffffffffffffffffffffffffffffffff1663df89f819826040518263ffffffff1660e01b81526004016108e391906112a0565b600060405180830381600087803b1580156108fd57600080fd5b505af1158015610911573d6000803e3d6000fd5b5050505050565b6060600060608390507f3c000000000000000000000000000000000000000000000000000000000000008160008151811061094f57fe5b602001015160f81c60f81b7effffffffffffffffffffffffffffffffffffffffffffffffffffffffffffff1916146109bc576040517f08c379a00000000000000000000000000000000000000000000000000000000081526004016109b3906112f5565b60405180910390fd5b60005b8151811015610a3e577f3c000000000000000000000000000000000000000000000000000000000000008282815181106109f557fe5b602001015160f81c60f81b7effffffffffffffffffffffffffffffffffffffffffffffffffffffffffffff19161415610a315782806001019350505b80806001019150506109bf565b5060608267ffffffffffffffff81118015610a5857600080fd5b50604051908082528060200260200182016040528015610a8c57816020015b6060815260200190600190039081610a775790505b509050600092506000606060005b8451811015610cd8576000831415610b945760008190505b8551811015610b92577f3e00000000000000000000000000000000000000000000000000000000000000868281518110610ae857fe5b602001015160f81c60f81b7effffffffffffffffffffffffffffffffffffffffffffffffffffffffffffff191614610b27578380600101945050610b85565b83806001019450508367ffffffffffffffff81118015610b4657600080fd5b506040519080825280601f01601f191660200182016040528015610b795781602001600182028036833780820191505090505b50925060009350610b92565b8080600101915050610ab2565b505b7f3e00000000000000000000000000000000000000000000000000000000000000858281518110610bc157fe5b602001015160f81c60f81b7effffffffffffffffffffffffffffffffffffffffffffffffffffffffffffff191614610c5057848181518110610bff57fe5b602001015160f81c60f81b828480600101955081518110610c1c57fe5b60200101907effffffffffffffffffffffffffffffffffffffffffffffffffffffffffffff1916908160001a905350610ccb565b848181518110610c5c57fe5b602001015160f81c60f81b828480600101955081518110610c7957fe5b60200101907effffffffffffffffffffffffffffffffffffffffffffffffffffffffffffff1916908160001a90535081848780600101985081518110610cbb57fe5b6020026020010181905250600092505b8080600101915050610a9a565b508295505050505050919050565b828054828255906000526020600020908101928215610d35579160200282015b82811115610d34578251829080519060200190610d24929190610d46565b5091602001919060010190610d06565b5b509050610d429190610dd4565b5090565b828054600181600116156101000203166002900490600052602060002090601f016020900481019282610d7c5760008555610dc3565b82601f10610d9557805160ff1916838001178555610dc3565b82800160010185558215610dc3579182015b82811115610dc2578251825591602001919060010190610da7565b5b509050610dd09190610df8565b5090565b5b80821115610df45760008181610deb9190610e15565b50600101610dd5565b5090565b5b80821115610e11576000816000905550600101610df9565b5090565b50805460018160011615610100020316600290046000825580601f10610e3b5750610e5a565b601f016020900490600052602060002090810190610e599190610df8565b5b50565b600082601f830112610e6e57600080fd5b8135610e81610e7c82611361565b611330565b9150818183526020840193506020810190508360005b83811015610ec75781358601610ead8882610ed1565b845260208401935060208301925050600181019050610e97565b5050505092915050565b600082601f830112610ee257600080fd5b8135610ef5610ef08261138d565b611330565b91508082526020830160208301858383011115610f1157600080fd5b610f1c83828461146a565b50505092915050565b600081359050610f34816114bf565b92915050565b600060208284031215610f4c57600080fd5b600082013567ffffffffffffffff811115610f6657600080fd5b610f7284828501610e5d565b91505092915050565b600060208284031215610f8d57600080fd5b600082013567ffffffffffffffff811115610fa757600080fd5b610fb384828501610ed1565b91505092915050565b600060208284031215610fce57600080fd5b6000610fdc84828501610f25565b91505092915050565b60008060408385031215610ff857600080fd5b600061100685828601610f25565b925050602083013567ffffffffffffffff81111561102357600080fd5b61102f85828601610e5d565b9150509250929050565b600061104583836110d1565b905092915050565b6110568161142e565b82525050565b6000611067826113cd565b61107181856113f0565b935083602082028501611083856113bd565b8060005b858110156110bf57848403895281516110a08582611039565b94506110ab836113e3565b925060208a01995050600181019050611087565b50829750879550505050505092915050565b60006110dc826113d8565b6110e68185611401565b93506110f6818560208601611479565b6110ff816114ae565b840191505092915050565b6000611115826113d8565b61111f8185611412565b935061112f818560208601611479565b611138816114ae565b840191505092915050565b600061114e826113d8565b6111588185611423565b9350611168818560208601611479565b80840191505092915050565b6000611181600b83611412565b91507f55706c6f616420677261660000000000000000000000000000000000000000006000830152602082019050919050565b60006111c1601683611412565b91507f496e636f7272656374206461746120666f726d61742e000000000000000000006000830152602082019050919050565b6000611201600083611412565b9150600082019050919050565b61121781611460565b82525050565b60006112298285611143565b91506112358284611143565b91508190509392505050565b6000602082019050611256600083018461104d565b92915050565b60006020820190508181036000830152611276818461105c565b905092915050565b60006020820190508181036000830152611298818461110a565b905092915050565b600060408201905081810360008301526112ba818461110a565b905081810360208301526112cd816111f4565b905092915050565b600060208201905081810360008301526112ee81611174565b9050919050565b6000602082019050818103600083015261130e816111b4565b9050919050565b600060208201905061132a600083018461120e565b92915050565b6000604051905081810181811067ffffffffffffffff82111715611357576113566114ac565b5b8060405250919050565b600067ffffffffffffffff82111561137c5761137b6114ac565b5b602082029050602081019050919050565b600067ffffffffffffffff8211156113a8576113a76114ac565b5b601f19601f8301169050602081019050919050565b6000819050602082019050919050565b600081519050919050565b600081519050919050565b6000602082019050919050565b600082825260208201905092915050565b600082825260208201905092915050565b600082825260208201905092915050565b600081905092915050565b600061143982611440565b9050919050565b600073ffffffffffffffffffffffffffffffffffffffff82169050919050565b6000819050919050565b82818337600083830152505050565b60005b8381101561149757808201518184015260208101905061147c565b838111156114a6576000848401525b50505050565bfe5b6000601f19601f8301169050919050565b6114c881611460565b81146114d357600080fd5b5056fea2646970667358221220a40a52c4f7bc23378f6f6728464e51cbf59746ccc33627d24ad2adc20168902d64736f6c63430007050033",
  "immutableReferences": {},
  "source": "// SPDX-License-Identifier: GPL-3.0\npragma solidity >=0.4.22 <0.9.0;\npragma abicoder v2;\n\nimport \"./oracleAPI.sol\";\n\ncontract RDF is OracleAPI {\n\n    event LogNewProvableQuery(string description);\n    event LogNewProvableResult(string result);\n\n    uint256 public grafCounter = 0;\n\n    struct Graph{\n      address owner;\n      uint256 date;\n      string[] triplets;\n    }\n\n    mapping(uint256 => Graph) graphs;\n\n    address private owner;\n\n    constructor() {\n    }\n\n    function uploadGraph(string memory _request) public payable{\n        // emit LogNewProvableQuery(\"Provable query was sent, standing by for the answer...\");\n        owner = msg.sender;\n        oracle.createRequest(_request,\"\");\n    }\n\n    function __callback(string memory _result) public {\n        require(msg.sender == OracleAddress);\n        string[] memory tmp = split(_result);\n        graphs[grafCounter].triplets = tmp;\n        graphs[grafCounter].owner = owner;\n        graphs[grafCounter].date = block.timestamp;\n        grafCounter++;\n        emit LogNewProvableQuery(\"Upload graf\");\n    }\n\n    function saveEditGraph(string[] memory _graph) public {\n        // require(msg.sender == OracleAddress);\n        // string[] memory tmp = split(_result);\n        /* graphs[grafCounter] = _graph; */\n\n        graphs[grafCounter].triplets = _graph;\n        graphs[grafCounter].owner = msg.sender;\n        graphs[grafCounter].date = block.timestamp;\n\n        grafCounter++;\n        emit LogNewProvableQuery(\"Upload graf\");\n    }\n\n    function split(string memory _ontology_terms) private pure returns(string[] memory){\n        uint256 ile = 0;\n        bytes memory stringAsBytesArray = bytes(_ontology_terms);\n        require(stringAsBytesArray[0] == '<', \"Incorrect data format.\");\n        for(uint256 i = 0; i < stringAsBytesArray.length; i++){\n            if(stringAsBytesArray[i] == '<'){\n                ile++;\n            }\n        }\n\n        string[] memory array = new string[](ile);\n        ile = 0;\n        uint256 count = 0;\n        bytes memory tmp;\n\n        for(uint256 i = 0; i < stringAsBytesArray.length; i++){\n            if(count == 0){\n                for(uint256 j = i; j < stringAsBytesArray.length; j++){\n                    if(stringAsBytesArray[j] != '>'){\n                        count++;\n                    } else {\n                        count++;\n                        tmp = new bytes(count);\n                        count = 0;\n                        break;\n                    }\n                }\n            }\n            if(stringAsBytesArray[i] != '>'){\n                tmp[count++] = stringAsBytesArray[i];\n            } else {\n                tmp[count++] = stringAsBytesArray[i];\n                array[ile++] = string(tmp);\n                count = 0;\n            }\n        }\n\n        return array;\n    }\n\n    function getGraf(uint256 _id) public view returns(string[] memory){\n      /* require(_id >= grafCounter, \"Grafa o takim indyfikatorze nie istnieje.\"); */\n      string[] memory tmp = new string[](graphs[_id].triplets.length);\n      for(uint256 i = 0; i < graphs[_id].triplets.length; i++){\n        tmp[i] = graphs[_id].triplets[i];\n      }\n      return tmp;\n    }\n\n    function getOwner(uint256 _id) public view returns(address _owner){\n      /* return owners[_id]; */\n      /* require(_id >= grafCounter, \"Grafa o takim indyfikatorze nie istnieje.\"); */\n      return graphs[_id].owner;\n    }\n\n    function getDateTime(uint256 _id) public view returns(uint256 _date){\n      /* require(_id >= grafCounter, \"Grafa o takim indyfikatorze nie istnieje.\"); */\n      return graphs[_id].date;\n    }\n\n    function check_rdf(uint256 _id, string[] memory _rdf_terms) public view returns(string memory){\n      string memory str = \"\";\n\n      for(uint256 i = 0; i < _rdf_terms.length; i++){\n        for(uint256 j = 0; j < graphs[_id].triplets.length; j++){\n          if(bytes(_rdf_terms[i]).length == bytes(graphs[_id].triplets[j]).length){\n            string memory tmp = graphs[_id].triplets[j];\n            if(keccak256(bytes(_rdf_terms[i])) == keccak256(bytes(tmp))){\n              /* tab.push(_rdf_terms[i]); */\n              str = string(abi.encodePacked(str, _rdf_terms[i]));\n              break;\n            }\n          }\n        }\n      }\n\n      return str;\n    }\n\n}\n",
  "sourcePath": "/home/kostia/Projects/Mako2/Mako2/dapp/contracts/RDF.sol",
  "compiler": {
    "name": "solc",
    "version": "0.7.5+commit.eb77ed08.Emscripten.clang"
  },
  "schemaVersion": "3.4.1",
  "updatedAt": "2021-10-12T19:33:29.119Z",
  "networkType": "ethereum",
  "devdoc": {
    "kind": "dev",
    "methods": {},
    "version": 1
  },
  "userdoc": {
    "kind": "user",
    "methods": {},
    "version": 1
  }
}